{
  "abi": [
    {
      "inputs": [
        {
          "internalType": "address",
          "name": "r_router",
          "type": "address"
        },
        {
          "internalType": "address",
          "name": "s_router",
          "type": "address"
        },
        {
          "internalType": "address",
          "name": "_linktoken",
          "type": "address"
        },
        {
          "internalType": "address",
          "name": "_paymentToken",
          "type": "address"
        },
        {
          "internalType": "uint256",
          "name": "_saleTime",
          "type": "uint256"
        },
        {
          "internalType": "uint256",
          "name": "_saleEndTime",
          "type": "uint256"
        },
        {
          "internalType": "uint256",
          "name": "_salePrice",
          "type": "uint256"
        }
      ],
      "stateMutability": "nonpayable",
      "type": "constructor"
    },
    {
      "inputs": [],
      "name": "CannotMintTwice",
      "type": "error"
    },
    {
      "inputs": [],
      "name": "InvalidOrEmptyArguments",
      "type": "error"
    },
    {
      "inputs": [
        {
          "internalType": "address",
          "name": "router",
          "type": "address"
        }
      ],
      "name": "InvalidRouter",
      "type": "error"
    },
    {
      "inputs": [],
      "name": "MaxCapReached",
      "type": "error"
    },
    {
      "inputs": [
        {
          "internalType": "uint256",
          "name": "endtime",
          "type": "uint256"
        },
        {
          "internalType": "uint256",
          "name": "currentTime",
          "type": "uint256"
        }
      ],
      "name": "SaledEnded",
      "type": "error"
    },
    {
      "inputs": [
        {
          "internalType": "uint256",
          "name": "start",
          "type": "uint256"
        },
        {
          "internalType": "uint256",
          "name": "currentTime",
          "type": "uint256"
        }
      ],
      "name": "SaledIsNotStarted",
      "type": "error"
    },
    {
      "inputs": [],
      "name": "SuperNFTSaleEnded",
      "type": "error"
    },
    {
      "anonymous": false,
      "inputs": [
        {
          "indexed": true,
          "internalType": "address",
          "name": "account",
          "type": "address"
        },
        {
          "indexed": true,
          "internalType": "address",
          "name": "operator",
          "type": "address"
        },
        {
          "indexed": false,
          "internalType": "bool",
          "name": "approved",
          "type": "bool"
        }
      ],
      "name": "ApprovalForAll",
      "type": "event"
    },
    {
      "anonymous": false,
      "inputs": [
        {
          "indexed": true,
          "internalType": "address",
          "name": "operator",
          "type": "address"
        },
        {
          "indexed": true,
          "internalType": "address",
          "name": "from",
          "type": "address"
        },
        {
          "indexed": true,
          "internalType": "address",
          "name": "to",
          "type": "address"
        },
        {
          "indexed": false,
          "internalType": "uint256[]",
          "name": "ids",
          "type": "uint256[]"
        },
        {
          "indexed": false,
          "internalType": "uint256[]",
          "name": "values",
          "type": "uint256[]"
        }
      ],
      "name": "TransferBatch",
      "type": "event"
    },
    {
      "anonymous": false,
      "inputs": [
        {
          "indexed": true,
          "internalType": "address",
          "name": "operator",
          "type": "address"
        },
        {
          "indexed": true,
          "internalType": "address",
          "name": "from",
          "type": "address"
        },
        {
          "indexed": true,
          "internalType": "address",
          "name": "to",
          "type": "address"
        },
        {
          "indexed": false,
          "internalType": "uint256",
          "name": "id",
          "type": "uint256"
        },
        {
          "indexed": false,
          "internalType": "uint256",
          "name": "value",
          "type": "uint256"
        }
      ],
      "name": "TransferSingle",
      "type": "event"
    },
    {
      "anonymous": false,
      "inputs": [
        {
          "indexed": false,
          "internalType": "string",
          "name": "value",
          "type": "string"
        },
        {
          "indexed": true,
          "internalType": "uint256",
          "name": "id",
          "type": "uint256"
        }
      ],
      "name": "URI",
      "type": "event"
    },
    {
      "inputs": [],
      "name": "_amountPerInvestors",
      "outputs": [
        {
          "internalType": "uint256",
          "name": "",
          "type": "uint256"
        }
      ],
      "stateMutability": "view",
      "type": "function"
    },
    {
      "inputs": [],
      "name": "author",
      "outputs": [
        {
          "internalType": "address",
          "name": "",
          "type": "address"
        }
      ],
      "stateMutability": "view",
      "type": "function"
    },
    {
      "inputs": [],
      "name": "authorHasWithdrawn",
      "outputs": [
        {
          "internalType": "bool",
          "name": "",
          "type": "bool"
        }
      ],
      "stateMutability": "view",
      "type": "function"
    },
    {
      "inputs": [],
      "name": "authorWthdraw",
      "outputs": [],
      "stateMutability": "nonpayable",
      "type": "function"
    },
    {
      "inputs": [
        {
          "internalType": "uint64",
          "name": "destinationChainSelector",
          "type": "uint64"
        }
      ],
      "name": "authorWthdrawCrossChain",
      "outputs": [
        {
          "internalType": "bytes32",
          "name": "messageId",
          "type": "bytes32"
        }
      ],
      "stateMutability": "nonpayable",
      "type": "function"
    },
    {
      "inputs": [
        {
          "internalType": "address",
          "name": "account",
          "type": "address"
        },
        {
          "internalType": "uint256",
          "name": "id",
          "type": "uint256"
        }
      ],
      "name": "balanceOf",
      "outputs": [
        {
          "internalType": "uint256",
          "name": "",
          "type": "uint256"
        }
      ],
      "stateMutability": "view",
      "type": "function"
    },
    {
      "inputs": [
        {
          "internalType": "address[]",
          "name": "accounts",
          "type": "address[]"
        },
        {
          "internalType": "uint256[]",
          "name": "ids",
          "type": "uint256[]"
        }
      ],
      "name": "balanceOfBatch",
      "outputs": [
        {
          "internalType": "uint256[]",
          "name": "",
          "type": "uint256[]"
        }
      ],
      "stateMutability": "view",
      "type": "function"
    },
    {
      "inputs": [
        {
          "internalType": "address",
          "name": "to",
          "type": "address"
        }
      ],
      "name": "buyRegularNFT",
      "outputs": [],
      "stateMutability": "nonpayable",
      "type": "function"
    },
    {
      "inputs": [
        {
          "internalType": "address",
          "name": "to",
          "type": "address"
        }
      ],
      "name": "buySuperNFT",
      "outputs": [],
      "stateMutability": "nonpayable",
      "type": "function"
    },
    {
      "inputs": [
        {
          "components": [
            {
              "internalType": "bytes32",
              "name": "messageId",
              "type": "bytes32"
            },
            {
              "internalType": "uint64",
              "name": "sourceChainSelector",
              "type": "uint64"
            },
            {
              "internalType": "bytes",
              "name": "sender",
              "type": "bytes"
            },
            {
              "internalType": "bytes",
              "name": "data",
              "type": "bytes"
            },
            {
              "components": [
                {
                  "internalType": "address",
                  "name": "token",
                  "type": "address"
                },
                {
                  "internalType": "uint256",
                  "name": "amount",
                  "type": "uint256"
                }
              ],
              "internalType": "struct Client.EVMTokenAmount[]",
              "name": "destTokenAmounts",
              "type": "tuple[]"
            }
          ],
          "internalType": "struct Client.Any2EVMMessage",
          "name": "message",
          "type": "tuple"
        }
      ],
      "name": "ccipReceive",
      "outputs": [],
      "stateMutability": "nonpayable",
      "type": "function"
    },
    {
      "inputs": [
        {
          "internalType": "uint256",
          "name": "id",
          "type": "uint256"
        }
      ],
      "name": "exists",
      "outputs": [
        {
          "internalType": "bool",
          "name": "",
          "type": "bool"
        }
      ],
      "stateMutability": "view",
      "type": "function"
    },
    {
      "inputs": [],
      "name": "getRouter",
      "outputs": [
        {
          "internalType": "address",
          "name": "",
          "type": "address"
        }
      ],
      "stateMutability": "view",
      "type": "function"
    },
    {
      "inputs": [
        {
          "internalType": "address",
          "name": "",
          "type": "address"
        }
      ],
      "name": "hasWithdrawn",
      "outputs": [
        {
          "internalType": "bool",
          "name": "",
          "type": "bool"
        }
      ],
      "stateMutability": "view",
      "type": "function"
    },
    {
      "inputs": [
        {
          "internalType": "address",
          "name": "account",
          "type": "address"
        },
        {
          "internalType": "address",
          "name": "operator",
          "type": "address"
        }
      ],
      "name": "isApprovedForAll",
      "outputs": [
        {
          "internalType": "bool",
          "name": "",
          "type": "bool"
        }
      ],
      "stateMutability": "view",
      "type": "function"
    },
    {
      "inputs": [],
      "name": "linkToken",
      "outputs": [
        {
          "internalType": "contract LinkTokenInterface",
          "name": "",
          "type": "address"
        }
      ],
      "stateMutability": "view",
      "type": "function"
    },
    {
      "inputs": [],
      "name": "paymentToken",
      "outputs": [
        {
          "internalType": "address",
          "name": "",
          "type": "address"
        }
      ],
      "stateMutability": "view",
      "type": "function"
    },
    {
      "inputs": [],
      "name": "regularNFTCap",
      "outputs": [
        {
          "internalType": "uint256",
          "name": "",
          "type": "uint256"
        }
      ],
      "stateMutability": "view",
      "type": "function"
    },
    {
      "inputs": [
        {
          "internalType": "address",
          "name": "from",
          "type": "address"
        },
        {
          "internalType": "address",
          "name": "to",
          "type": "address"
        },
        {
          "internalType": "uint256[]",
          "name": "ids",
          "type": "uint256[]"
        },
        {
          "internalType": "uint256[]",
          "name": "amounts",
          "type": "uint256[]"
        },
        {
          "internalType": "bytes",
          "name": "data",
          "type": "bytes"
        }
      ],
      "name": "safeBatchTransferFrom",
      "outputs": [],
      "stateMutability": "nonpayable",
      "type": "function"
    },
    {
      "inputs": [
        {
          "internalType": "address",
          "name": "from",
          "type": "address"
        },
        {
          "internalType": "address",
          "name": "to",
          "type": "address"
        },
        {
          "internalType": "uint256",
          "name": "id",
          "type": "uint256"
        },
        {
          "internalType": "uint256",
          "name": "amount",
          "type": "uint256"
        },
        {
          "internalType": "bytes",
          "name": "data",
          "type": "bytes"
        }
      ],
      "name": "safeTransferFrom",
      "outputs": [],
      "stateMutability": "nonpayable",
      "type": "function"
    },
    {
      "inputs": [],
      "name": "saleEndTime",
      "outputs": [
        {
          "internalType": "uint256",
          "name": "",
          "type": "uint256"
        }
      ],
      "stateMutability": "view",
      "type": "function"
    },
    {
      "inputs": [],
      "name": "salePrice",
      "outputs": [
        {
          "internalType": "uint256",
          "name": "",
          "type": "uint256"
        }
      ],
      "stateMutability": "view",
      "type": "function"
    },
    {
      "inputs": [],
      "name": "saleTime",
      "outputs": [
        {
          "internalType": "uint256",
          "name": "",
          "type": "uint256"
        }
      ],
      "stateMutability": "view",
      "type": "function"
    },
    {
      "inputs": [],
      "name": "sendRouter",
      "outputs": [
        {
          "internalType": "contract IRouterClient",
          "name": "",
          "type": "address"
        }
      ],
      "stateMutability": "view",
      "type": "function"
    },
    {
      "inputs": [
        {
          "internalType": "address",
          "name": "operator",
          "type": "address"
        },
        {
          "internalType": "bool",
          "name": "approved",
          "type": "bool"
        }
      ],
      "name": "setApprovalForAll",
      "outputs": [],
      "stateMutability": "nonpayable",
      "type": "function"
    },
    {
      "inputs": [],
      "name": "superNFTCap",
      "outputs": [
        {
          "internalType": "uint256",
          "name": "",
          "type": "uint256"
        }
      ],
      "stateMutability": "view",
      "type": "function"
    },
    {
      "inputs": [],
      "name": "superNFTPrice",
      "outputs": [
        {
          "internalType": "uint256",
          "name": "",
          "type": "uint256"
        }
      ],
      "stateMutability": "view",
      "type": "function"
    },
    {
      "inputs": [
        {
          "internalType": "bytes4",
          "name": "interfaceId",
          "type": "bytes4"
        }
      ],
      "name": "supportsInterface",
      "outputs": [
        {
          "internalType": "bool",
          "name": "",
          "type": "bool"
        }
      ],
      "stateMutability": "view",
      "type": "function"
    },
    {
      "inputs": [
        {
          "internalType": "uint256",
          "name": "id",
          "type": "uint256"
        }
      ],
      "name": "totalSupply",
      "outputs": [
        {
          "internalType": "uint256",
          "name": "",
          "type": "uint256"
        }
      ],
      "stateMutability": "view",
      "type": "function"
    },
    {
      "inputs": [
        {
          "internalType": "uint256",
          "name": "",
          "type": "uint256"
        }
      ],
      "name": "uri",
      "outputs": [
        {
          "internalType": "string",
          "name": "",
          "type": "string"
        }
      ],
      "stateMutability": "view",
      "type": "function"
    },
    {
      "inputs": [],
      "name": "withdraw",
      "outputs": [],
      "stateMutability": "nonpayable",
      "type": "function"
    },
    {
      "inputs": [
        {
          "internalType": "uint64",
          "name": "destinationChainSelector",
          "type": "uint64"
        }
      ],
      "name": "withdrawCrossChain",
      "outputs": [
        {
          "internalType": "bytes32",
          "name": "messageId",
          "type": "bytes32"
        }
      ],
      "stateMutability": "nonpayable",
      "type": "function"
    }
  ],
  "bytecode": {
    "object": "0x6101606040523480156200001257600080fd5b5060405162002eba38038062002eba8339810160408190526200003591620001a6565b60405180606001604052806027815260200162002e9360279139876001600160a01b0381166200007f576040516335fdcccd60e21b81526000600482015260240160405180910390fd5b6001600160a01b0316608052620000968162000177565b50600a60a0819052606460c05260e08490526101008390526003829055620000c090829062000220565b60049081556001600160a01b03858116610120523361014052600980548983166001600160a01b03199182168117909255600a8054938a16939091168317905560405163095ea7b360e01b81529283015260001960248301529063095ea7b3906044016020604051808303816000875af115801562000143573d6000803e3d6000fd5b505050506040513d601f19601f820116820180604052508101906200016991906200024c565b5050505050505050620003e8565b60026200018582826200031c565b5050565b80516001600160a01b0381168114620001a157600080fd5b919050565b600080600080600080600060e0888a031215620001c257600080fd5b620001cd8862000189565b9650620001dd6020890162000189565b9550620001ed6040890162000189565b9450620001fd6060890162000189565b93506080880151925060a0880151915060c0880151905092959891949750929550565b80820281158282048414176200024657634e487b7160e01b600052601160045260246000fd5b92915050565b6000602082840312156200025f57600080fd5b815180151581146200027057600080fd5b9392505050565b634e487b7160e01b600052604160045260246000fd5b600181811c90821680620002a257607f821691505b602082108103620002c357634e487b7160e01b600052602260045260246000fd5b50919050565b601f8211156200031757600081815260208120601f850160051c81016020861015620002f25750805b601f850160051c820191505b818110156200031357828155600101620002fe565b5050505b505050565b81516001600160401b0381111562000338576200033862000277565b62000350816200034984546200028d565b84620002c9565b602080601f8311600181146200038857600084156200036f5750858301515b600019600386901b1c1916600185901b17855562000313565b600085815260208120601f198616915b82811015620003b95788860151825594840194600190910190840162000398565b5085821015620003d85787850151600019600388901b60f8161c191681555b5050505050600190811b01905550565b60805160a05160c05160e0516101005161012051610140516129856200050e600039600081816103dd0152818161096a015281816111ae0152611c390152600081816102c30152818161070c0152818161081c0152818161099a01528181610c1001528181610e1701528181610f14015281816116670152611c690152600081816104e601528181610cdb01528181610d0f01528181610d44015281816111ed0152818161122a01528181611ccf01528181611d030152611d380152600081816102570152818161089601528181610ca60152818161169b015281816117130152611c9a01526000818161028701528181610da0015261174501526000818161045d015281816108fe01526116ce0152600081816104140152610c4801526129856000f3fe608060405234801561001057600080fd5b50600436106101e45760003560e01c80635e2c19db1161010f578063bd85b039116100a2578063e985e9c511610071578063e985e9c5146104a5578063ed338ff1146104e1578063f242432a14610508578063f51f96dd1461051b57600080fd5b8063bd85b03914610438578063c6eef29e14610458578063ccebfefc1461047f578063e65d72061461049257600080fd5b8063a22cb465116100de578063a22cb465146103c5578063a6c3e6b9146103d8578063b045c3c7146103ff578063b0f479a11461041257600080fd5b80635e2c19db1461036f5780637fda72051461039257806385572ffb146103a5578063a1623ae3146103b857600080fd5b80633013ce2911610187578063497bd2a811610156578063497bd2a8146103165780634e1273f4146103295780634f558e791461034957806357970e931461035c57600080fd5b80633013ce29146102be5780633a46b9ad146102fd5780633ccfd60b14610305578063433e408a1461030d57600080fd5b80631596facb116101c35780631596facb1461025257806316b2a554146102795780631c207745146102825780632eb2c2d6146102a957600080fd5b8062fdd58e146101e957806301ffc9a71461020f5780630e89341c14610232575b600080fd5b6101fc6101f7366004611db2565b610524565b6040519081526020015b60405180910390f35b61022261021d366004611df4565b6105bd565b6040519015158152602001610206565b610245610240366004611e11565b6105c8565b6040516102069190611e70565b6101fc7f000000000000000000000000000000000000000000000000000000000000000081565b6101fc60045481565b6101fc7f000000000000000000000000000000000000000000000000000000000000000081565b6102bc6102b7366004612019565b61065c565b005b6102e57f000000000000000000000000000000000000000000000000000000000000000081565b6040516001600160a01b039091168152602001610206565b6102bc6106a8565b6102bc61077d565b6101fc60055481565b6102bc6103243660046120c6565b610894565b61033c6103373660046120e3565b610a34565b60405161020691906121ea565b610222610357366004611e11565b610b5d565b600a546102e5906001600160a01b031681565b61022261037d3660046120c6565b60076020526000908152604090205460ff1681565b6101fc6103a0366004612219565b610bc9565b6102bc6103b3366004612234565b610c3d565b6006546102229060ff1681565b6102bc6103d336600461227c565b610c99565b6102e57f000000000000000000000000000000000000000000000000000000000000000081565b6102bc61040d3660046120c6565b610ca4565b7f00000000000000000000000000000000000000000000000000000000000000006102e5565b6101fc610446366004611e11565b60009081526008602052604090205490565b6101fc7f000000000000000000000000000000000000000000000000000000000000000081565b6101fc61048d366004612219565b610e92565b6009546102e5906001600160a01b031681565b6102226104b33660046122b5565b6001600160a01b03918216600090815260016020908152604080832093909416825291909152205460ff1690565b6101fc7f000000000000000000000000000000000000000000000000000000000000000081565b6102bc6105163660046122e3565b610f3a565b6101fc60035481565b60006001600160a01b0383166105945760405162461bcd60e51b815260206004820152602a60248201527f455243313135353a2061646472657373207a65726f206973206e6f742061207660448201526930b634b21037bbb732b960b11b60648201526084015b60405180910390fd5b506000818152602081815260408083206001600160a01b03861684529091529020545b92915050565b60006105b782610f7f565b6060600280546105d79061234b565b80601f01602080910402602001604051908101604052809291908181526020018280546106039061234b565b80156106505780601f1061062557610100808354040283529160200191610650565b820191906000526020600020905b81548152906001019060200180831161063357829003601f168201915b50505050509050919050565b6001600160a01b038516331480610678575061067885336104b3565b6106945760405162461bcd60e51b815260040161058b90612385565b6106a18585858585610fcf565b5050505050565b6106b1336111ac565b6003546000906002906106c46001610446565b6106ce91906123e9565b6106d89190612400565b6006805460ff1916600117905560405163a9059cbb60e01b8152336004820152602481018290529091506001600160a01b037f0000000000000000000000000000000000000000000000000000000000000000169063a9059cbb906044016020604051808303816000875af1158015610755573d6000803e3d6000fd5b505050506040513d601f19601f820116820180604052508101906107799190612422565b5050565b61078633611227565b6005546000036107e2576003546000906002906107a36001610446565b6107ad91906123e9565b6107b79190612400565b9050600060016107c682610446565b6107d0919061243f565b90506107dc8183612400565b60055550505b3360008181526007602052604090819020805460ff19166001179055600554905163a9059cbb60e01b8152600481019290925260248201527f00000000000000000000000000000000000000000000000000000000000000006001600160a01b03169063a9059cbb906044016020604051808303816000875af115801561086d573d6000803e3d6000fd5b505050506040513d601f19601f820116820180604052508101906108919190612422565b50565b7f000000000000000000000000000000000000000000000000000000000000000042106108d45760405163953c166b60e01b815260040160405180910390fd5b6108df816000610524565b156108fc576040516211f8cb60e81b815260040160405180910390fd5b7f00000000000000000000000000000000000000000000000000000000000000006109276000610446565b036109455760405163f10b176b60e01b815260040160405180910390fd5b600480546040516323b872dd60e01b81526001600160a01b03848116938201939093527f00000000000000000000000000000000000000000000000000000000000000008316602482015260448101919091527f0000000000000000000000000000000000000000000000000000000000000000909116906323b872dd906064015b6020604051808303816000875af11580156109e6573d6000803e3d6000fd5b505050506040513d601f19601f82011682018060405250810190610a0a9190612422565b50610a298160005b6001604051806020016040528060008152506112a4565b610891816002610a12565b60608151835114610a995760405162461bcd60e51b815260206004820152602960248201527f455243313135353a206163636f756e747320616e6420696473206c656e677468604482015268040dad2e6dac2e8c6d60bb1b606482015260840161058b565b600083516001600160401b03811115610ab457610ab4611e83565b604051908082528060200260200182016040528015610add578160200160208202803683370190505b50905060005b8451811015610b5557610b28858281518110610b0157610b01612452565b6020026020010151858381518110610b1b57610b1b612452565b6020026020010151610524565b828281518110610b3a57610b3a612452565b6020908102919091010152610b4e81612468565b9050610ae3565b509392505050565b60405163bd85b03960e01b8152600481018290526000908190309063bd85b03990602401602060405180830381865afa158015610b9e573d6000803e3d6000fd5b505050506040513d601f19601f82011682018060405250810190610bc29190612481565b1192915050565b6000610bd4336111ac565b600354600090600290610be76001610446565b610bf191906123e9565b610bfb9190612400565b6006805460ff191660011790559050610c36337f000000000000000000000000000000000000000000000000000000000000000083866113b8565b9392505050565b336001600160a01b037f00000000000000000000000000000000000000000000000000000000000000001614610c88576040516335fdcccd60e21b815233600482015260240161058b565b610891610c948261253b565b6115f6565b610779338383611783565b7f0000000000000000000000000000000000000000000000000000000000000000421015610d0d5760405163a009ab9160e01b81527f0000000000000000000000000000000000000000000000000000000000000000600482015242602482015260440161058b565b7f0000000000000000000000000000000000000000000000000000000000000000421115610d76576040516396376d6960e01b81527f0000000000000000000000000000000000000000000000000000000000000000600482015242602482015260440161058b565b610d81816001610524565b15610d9e576040516211f8cb60e81b815260040160405180910390fd5b7f0000000000000000000000000000000000000000000000000000000000000000610dc96001610446565b03610de75760405163f10b176b60e01b815260040160405180910390fd5b6003546040516323b872dd60e01b81526001600160a01b03838116600483015230602483015260448201929092527f0000000000000000000000000000000000000000000000000000000000000000909116906323b872dd906064016020604051808303816000875af1158015610e62573d6000803e3d6000fd5b505050506040513d601f19601f82011682018060405250810190610e869190612422565b50610a29816001610a12565b6000600554600003610ef057600354600090600290610eb16001610446565b610ebb91906123e9565b610ec59190612400565b905060006001610ed482610446565b610ede919061243f565b9050610eea8183612400565b60055550505b336000818152600760205260409020805460ff191660011790556005546105b791907f000000000000000000000000000000000000000000000000000000000000000090856113b8565b6001600160a01b038516331480610f565750610f5685336104b3565b610f725760405162461bcd60e51b815260040161058b90612385565b6106a18585858585611863565b60006001600160e01b03198216636cdb3d1360e11b1480610fb057506001600160e01b031982166303a24d0760e21b145b806105b757506301ffc9a760e01b6001600160e01b03198316146105b7565b81518351146110315760405162461bcd60e51b815260206004820152602860248201527f455243313135353a2069647320616e6420616d6f756e7473206c656e677468206044820152670dad2e6dac2e8c6d60c31b606482015260840161058b565b6001600160a01b0384166110575760405162461bcd60e51b815260040161058b906125e7565b3360005b845181101561113e57600085828151811061107857611078612452565b60200260200101519050600085838151811061109657611096612452565b602090810291909101810151600084815280835260408082206001600160a01b038e1683529093529190912054909150818110156110e65760405162461bcd60e51b815260040161058b9061262c565b6000838152602081815260408083206001600160a01b038e8116855292528083208585039055908b16825281208054849290611123908490612676565b925050819055505050508061113790612468565b905061105b565b50846001600160a01b0316866001600160a01b0316826001600160a01b03167f4a39dc06d4c0dbc64b70af90fd698a233a518aa5d07e595d983b8c0526c8f7fb878760405161118e929190612689565b60405180910390a46111a481878787878761198d565b505050505050565b7f00000000000000000000000000000000000000000000000000000000000000006001600160a01b0316816001600160a01b0316146111ea57600080fd5b427f0000000000000000000000000000000000000000000000000000000000000000111561121757600080fd5b60065460ff161561089157600080fd5b427f0000000000000000000000000000000000000000000000000000000000000000111561125457600080fd5b61125f816000610524565b60000361127e576040516211f8cb60e81b815260040160405180910390fd5b6001600160a01b03811660009081526007602052604090205460ff161561089157600080fd5b6001600160a01b0384166113045760405162461bcd60e51b815260206004820152602160248201527f455243313135353a206d696e7420746f20746865207a65726f206164647265736044820152607360f81b606482015260840161058b565b33600061131085611ae8565b9050600061131d85611ae8565b90506000868152602081815260408083206001600160a01b038b1684529091528120805487929061134f908490612676565b909155505060408051878152602081018790526001600160a01b03808a1692600092918716917fc3d58168c5ae7397731d063d5bbf3d657854427343f4c083240f7aacaa2d0f62910160405180910390a46113af83600089898989611b33565b50505050505050565b604080516001808252818301909252600091829190816020015b60408051808201909152600080825260208201528152602001906001900390816113d25790505090506040518060400160405280866001600160a01b03168152602001858152508160008151811061142c5761142c612452565b60209081029190910101526040805160a081019091526001600160a01b03871660c08201526000908060e0810160408051601f19818403018152918152908252805160208181018352600080835284820192909252838301879052600a546001600160a01b0316606085015282518084019093528183528201526080909101906114fa906040805182516024820152602092830151151560448083019190915282518083039091018152606490910190915290810180516001600160e01b03166397a657c960e01b17905290565b905260095460405163095ea7b360e01b81526001600160a01b0391821660048201526024810188905291925087169063095ea7b3906044016020604051808303816000875af1158015611551573d6000803e3d6000fd5b505050506040513d601f19601f820116820180604052508101906115759190612422565b506009546040516396f4e9f960e01b81526001600160a01b03909116906396f4e9f9906115a890879085906004016126b7565b6020604051808303816000875af11580156115c7573d6000803e3d6000fd5b505050506040513d601f19601f820116820180604052508101906115eb9190612481565b979650505050505050565b6000816080015160008151811061160f5761160f612452565b6020026020010151602001519050600082604001518060200190518101906116379190612790565b9050826080015160008151811061165057611650612452565b6020026020010151600001516001600160a01b03167f00000000000000000000000000000000000000000000000000000000000000006001600160a01b03161461169957600080fd5b7f0000000000000000000000000000000000000000000000000000000000000000421015611711576004548210806116f957507f00000000000000000000000000000000000000000000000000000000000000006116f76000610446565b145b1561170357600080fd5b61170c81611bee565b505050565b7f0000000000000000000000000000000000000000000000000000000000000000421061170c5760035482108061177057507f000000000000000000000000000000000000000000000000000000000000000061176e6001610446565b145b1561177a57600080fd5b61170c81611c98565b816001600160a01b0316836001600160a01b0316036117f65760405162461bcd60e51b815260206004820152602960248201527f455243313135353a2073657474696e6720617070726f76616c20737461747573604482015268103337b91039b2b63360b91b606482015260840161058b565b6001600160a01b03838116600081815260016020908152604080832094871680845294825291829020805460ff191686151590811790915591519182527f17307eab39ab6107e8899845ad3d59bd9653f200f220920489ca2b5937696c31910160405180910390a3505050565b6001600160a01b0384166118895760405162461bcd60e51b815260040161058b906125e7565b33600061189585611ae8565b905060006118a285611ae8565b90506000868152602081815260408083206001600160a01b038c168452909152902054858110156118e55760405162461bcd60e51b815260040161058b9061262c565b6000878152602081815260408083206001600160a01b038d8116855292528083208985039055908a16825281208054889290611922908490612676565b909155505060408051888152602081018890526001600160a01b03808b16928c821692918816917fc3d58168c5ae7397731d063d5bbf3d657854427343f4c083240f7aacaa2d0f62910160405180910390a4611982848a8a8a8a8a611b33565b505050505050505050565b6001600160a01b0384163b156111a45760405163bc197c8160e01b81526001600160a01b0385169063bc197c81906119d190899089908890889088906004016127ad565b6020604051808303816000875af1925050508015611a0c575060408051601f3d908101601f19168201909252611a099181019061280b565b60015b611ab857611a18612828565b806308c379a003611a515750611a2c612844565b80611a375750611a53565b8060405162461bcd60e51b815260040161058b9190611e70565b505b60405162461bcd60e51b815260206004820152603460248201527f455243313135353a207472616e7366657220746f206e6f6e2d455243313135356044820152732932b1b2b4bb32b91034b6b83632b6b2b73a32b960611b606482015260840161058b565b6001600160e01b0319811663bc197c8160e01b146113af5760405162461bcd60e51b815260040161058b906128cd565b60408051600180825281830190925260609160009190602080830190803683370190505090508281600081518110611b2257611b22612452565b602090810291909101015292915050565b6001600160a01b0384163b156111a45760405163f23a6e6160e01b81526001600160a01b0385169063f23a6e6190611b779089908990889088908890600401612915565b6020604051808303816000875af1925050508015611bb2575060408051601f3d908101601f19168201909252611baf9181019061280b565b60015b611bbe57611a18612828565b6001600160e01b0319811663f23a6e6160e01b146113af5760405162461bcd60e51b815260040161058b906128cd565b611bf9816000610524565b15611c16576040516211f8cb60e81b815260040160405180910390fd5b600480546040516323b872dd60e01b815230928101929092526001600160a01b037f00000000000000000000000000000000000000000000000000000000000000008116602484015260448301919091527f000000000000000000000000000000000000000000000000000000000000000016906323b872dd906064016109c7565b7f0000000000000000000000000000000000000000000000000000000000000000421015611d015760405163a009ab9160e01b81527f0000000000000000000000000000000000000000000000000000000000000000600482015242602482015260440161058b565b7f0000000000000000000000000000000000000000000000000000000000000000421115611d6a576040516396376d6960e01b81527f0000000000000000000000000000000000000000000000000000000000000000600482015242602482015260440161058b565b611d75816001610524565b15611d92576040516211f8cb60e81b815260040160405180910390fd5b610a29816001610a12565b6001600160a01b038116811461089157600080fd5b60008060408385031215611dc557600080fd5b8235611dd081611d9d565b946020939093013593505050565b6001600160e01b03198116811461089157600080fd5b600060208284031215611e0657600080fd5b8135610c3681611dde565b600060208284031215611e2357600080fd5b5035919050565b6000815180845260005b81811015611e5057602081850181015186830182015201611e34565b506000602082860101526020601f19601f83011685010191505092915050565b602081526000610c366020830184611e2a565b634e487b7160e01b600052604160045260246000fd5b604081018181106001600160401b0382111715611eb857611eb8611e83565b60405250565b601f8201601f191681016001600160401b0381118282101715611ee357611ee3611e83565b6040525050565b60405160a081016001600160401b0381118282101715611f0c57611f0c611e83565b60405290565b60006001600160401b03821115611f2b57611f2b611e83565b5060051b60200190565b600082601f830112611f4657600080fd5b81356020611f5382611f12565b604051611f608282611ebe565b83815260059390931b8501820192828101915086841115611f8057600080fd5b8286015b84811015611f9b5780358352918301918301611f84565b509695505050505050565b600082601f830112611fb757600080fd5b81356001600160401b03811115611fd057611fd0611e83565b604051611fe7601f8301601f191660200182611ebe565b818152846020838601011115611ffc57600080fd5b816020850160208301376000918101602001919091529392505050565b600080600080600060a0868803121561203157600080fd5b853561203c81611d9d565b9450602086013561204c81611d9d565b935060408601356001600160401b038082111561206857600080fd5b61207489838a01611f35565b9450606088013591508082111561208a57600080fd5b61209689838a01611f35565b935060808801359150808211156120ac57600080fd5b506120b988828901611fa6565b9150509295509295909350565b6000602082840312156120d857600080fd5b8135610c3681611d9d565b600080604083850312156120f657600080fd5b82356001600160401b038082111561210d57600080fd5b818501915085601f83011261212157600080fd5b8135602061212e82611f12565b60405161213b8282611ebe565b83815260059390931b850182019282810191508984111561215b57600080fd5b948201945b8386101561218257853561217381611d9d565b82529482019490820190612160565b9650508601359250508082111561219857600080fd5b506121a585828601611f35565b9150509250929050565b600081518084526020808501945080840160005b838110156121df578151875295820195908201906001016121c3565b509495945050505050565b602081526000610c3660208301846121af565b80356001600160401b038116811461221457600080fd5b919050565b60006020828403121561222b57600080fd5b610c36826121fd565b60006020828403121561224657600080fd5b81356001600160401b0381111561225c57600080fd5b820160a08185031215610c3657600080fd5b801515811461089157600080fd5b6000806040838503121561228f57600080fd5b823561229a81611d9d565b915060208301356122aa8161226e565b809150509250929050565b600080604083850312156122c857600080fd5b82356122d381611d9d565b915060208301356122aa81611d9d565b600080600080600060a086880312156122fb57600080fd5b853561230681611d9d565b9450602086013561231681611d9d565b9350604086013592506060860135915060808601356001600160401b0381111561233f57600080fd5b6120b988828901611fa6565b600181811c9082168061235f57607f821691505b60208210810361237f57634e487b7160e01b600052602260045260246000fd5b50919050565b6020808252602e908201527f455243313135353a2063616c6c6572206973206e6f7420746f6b656e206f776e60408201526d195c881bdc88185c1c1c9bdd995960921b606082015260800190565b634e487b7160e01b600052601160045260246000fd5b80820281158282048414176105b7576105b76123d3565b60008261241d57634e487b7160e01b600052601260045260246000fd5b500490565b60006020828403121561243457600080fd5b8151610c368161226e565b818103818111156105b7576105b76123d3565b634e487b7160e01b600052603260045260246000fd5b60006001820161247a5761247a6123d3565b5060010190565b60006020828403121561249357600080fd5b5051919050565b600082601f8301126124ab57600080fd5b813560206124b882611f12565b604080516124c68382611ebe565b84815260069490941b86018301938381019250878511156124e657600080fd5b8387015b8581101561252f5782818a0312156125025760008081fd5b825161250d81611e99565b813561251881611d9d565b8152818601358682015284529284019282016124ea565b50979650505050505050565b600060a0823603121561254d57600080fd5b612555611eea565b82358152612565602084016121fd565b602082015260408301356001600160401b038082111561258457600080fd5b61259036838701611fa6565b604084015260608501359150808211156125a957600080fd5b6125b536838701611fa6565b606084015260808501359150808211156125ce57600080fd5b506125db3682860161249a565b60808301525092915050565b60208082526025908201527f455243313135353a207472616e7366657220746f20746865207a65726f206164604082015264647265737360d81b606082015260800190565b6020808252602a908201527f455243313135353a20696e73756666696369656e742062616c616e636520666f60408201526939103a3930b739b332b960b11b606082015260800190565b808201808211156105b7576105b76123d3565b60408152600061269c60408301856121af565b82810360208401526126ae81856121af565b95945050505050565b600060406001600160401b038516835260208181850152845160a0838601526126e360e0860182611e2a565b905081860151603f19808784030160608801526127008383611e2a565b88860151888203830160808a01528051808352908601945060009350908501905b8084101561275357845180516001600160a01b0316835286015186830152938501936001939093019290860190612721565b5060608901516001600160a01b031660a08901526080890151888203830160c08a015295506127828187611e2a565b9a9950505050505050505050565b6000602082840312156127a257600080fd5b8151610c3681611d9d565b6001600160a01b0386811682528516602082015260a0604082018190526000906127d9908301866121af565b82810360608401526127eb81866121af565b905082810360808401526127ff8185611e2a565b98975050505050505050565b60006020828403121561281d57600080fd5b8151610c3681611dde565b600060033d11156128415760046000803e5060005160e01c5b90565b600060443d10156128525790565b6040516003193d81016004833e81513d6001600160401b03816024840111818411171561288157505050505090565b82850191508151818111156128995750505050505090565b843d87010160208285010111156128b35750505050505090565b6128c260208286010187611ebe565b509095945050505050565b60208082526028908201527f455243313135353a204552433131353552656365697665722072656a656374656040820152676420746f6b656e7360c01b606082015260800190565b6001600160a01b03868116825285166020820152604081018490526060810183905260a0608082018190526000906115eb90830184611e2a56fea2646970667358221220649a15668f9232789d062415b8685a412c5aceadf8a49e4291fe81bfbc836ebd64736f6c6343000813003368747470733a2f2f67616d652e6578616d706c652f6170692f6974656d2f7b69647d2e6a736f6e",
    "linkReferences": {}
  },
  "methodIdentifiers": {
    "_amountPerInvestors()": "433e408a",
    "author()": "a6c3e6b9",
    "authorHasWithdrawn()": "a1623ae3",
    "authorWthdraw()": "3a46b9ad",
    "authorWthdrawCrossChain(uint64)": "7fda7205",
    "balanceOf(address,uint256)": "00fdd58e",
    "balanceOfBatch(address[],uint256[])": "4e1273f4",
    "buyRegularNFT(address)": "b045c3c7",
    "buySuperNFT(address)": "497bd2a8",
    "ccipReceive((bytes32,uint64,bytes,bytes,(address,uint256)[]))": "85572ffb",
    "exists(uint256)": "4f558e79",
    "getRouter()": "b0f479a1",
    "hasWithdrawn(address)": "5e2c19db",
    "isApprovedForAll(address,address)": "e985e9c5",
    "linkToken()": "57970e93",
    "paymentToken()": "3013ce29",
    "regularNFTCap()": "1c207745",
    "safeBatchTransferFrom(address,address,uint256[],uint256[],bytes)": "2eb2c2d6",
    "safeTransferFrom(address,address,uint256,uint256,bytes)": "f242432a",
    "saleEndTime()": "ed338ff1",
    "salePrice()": "f51f96dd",
    "saleTime()": "1596facb",
    "sendRouter()": "e65d7206",
    "setApprovalForAll(address,bool)": "a22cb465",
    "superNFTCap()": "c6eef29e",
    "superNFTPrice()": "16b2a554",
    "supportsInterface(bytes4)": "01ffc9a7",
    "totalSupply(uint256)": "bd85b039",
    "uri(uint256)": "0e89341c",
    "withdraw()": "3ccfd60b",
    "withdrawCrossChain(uint64)": "ccebfefc"
  },
  "id": 41
}