{
  "abi": [
    {
      "inputs": [
        {
          "internalType": "address",
          "name": "router",
          "type": "address"
        },
        {
          "internalType": "address",
          "name": "link",
          "type": "address"
        }
      ],
      "stateMutability": "nonpayable",
      "type": "constructor"
    },
    {
      "inputs": [
        {
          "internalType": "address",
          "name": "owner",
          "type": "address"
        },
        {
          "internalType": "address",
          "name": "target",
          "type": "address"
        },
        {
          "internalType": "uint256",
          "name": "value",
          "type": "uint256"
        }
      ],
      "name": "FailedToWithdrawEth",
      "type": "error"
    },
    {
      "anonymous": false,
      "inputs": [
        {
          "indexed": false,
          "internalType": "bytes32",
          "name": "messageId",
          "type": "bytes32"
        }
      ],
      "name": "MessageSent",
      "type": "event"
    },
    {
      "anonymous": false,
      "inputs": [
        {
          "indexed": true,
          "internalType": "address",
          "name": "from",
          "type": "address"
        },
        {
          "indexed": true,
          "internalType": "address",
          "name": "to",
          "type": "address"
        }
      ],
      "name": "OwnershipTransferRequested",
      "type": "event"
    },
    {
      "anonymous": false,
      "inputs": [
        {
          "indexed": true,
          "internalType": "address",
          "name": "from",
          "type": "address"
        },
        {
          "indexed": true,
          "internalType": "address",
          "name": "to",
          "type": "address"
        }
      ],
      "name": "OwnershipTransferred",
      "type": "event"
    },
    {
      "inputs": [],
      "name": "acceptOwnership",
      "outputs": [],
      "stateMutability": "nonpayable",
      "type": "function"
    },
    {
      "inputs": [
        {
          "internalType": "uint64",
          "name": "chainSelector",
          "type": "uint64"
        }
      ],
      "name": "getSupportedTokens",
      "outputs": [
        {
          "internalType": "address[]",
          "name": "tokens",
          "type": "address[]"
        }
      ],
      "stateMutability": "view",
      "type": "function"
    },
    {
      "inputs": [],
      "name": "owner",
      "outputs": [
        {
          "internalType": "address",
          "name": "",
          "type": "address"
        }
      ],
      "stateMutability": "view",
      "type": "function"
    },
    {
      "inputs": [
        {
          "internalType": "uint64",
          "name": "destinationChainSelector",
          "type": "uint64"
        },
        {
          "internalType": "address",
          "name": "receiver",
          "type": "address"
        },
        {
          "internalType": "address",
          "name": "_token",
          "type": "address"
        },
        {
          "internalType": "uint256",
          "name": "_amount",
          "type": "uint256"
        },
        {
          "internalType": "enum BasicTokenSender.PayFeesIn",
          "name": "payFeesIn",
          "type": "uint8"
        }
      ],
      "name": "send",
      "outputs": [],
      "stateMutability": "nonpayable",
      "type": "function"
    },
    {
      "inputs": [
        {
          "internalType": "address",
          "name": "to",
          "type": "address"
        }
      ],
      "name": "transferOwnership",
      "outputs": [],
      "stateMutability": "nonpayable",
      "type": "function"
    },
    {
      "inputs": [
        {
          "internalType": "address",
          "name": "beneficiary",
          "type": "address"
        }
      ],
      "name": "withdraw",
      "outputs": [],
      "stateMutability": "nonpayable",
      "type": "function"
    },
    {
      "inputs": [
        {
          "internalType": "address",
          "name": "beneficiary",
          "type": "address"
        },
        {
          "internalType": "address",
          "name": "token",
          "type": "address"
        }
      ],
      "name": "withdrawToken",
      "outputs": [],
      "stateMutability": "nonpayable",
      "type": "function"
    },
    {
      "stateMutability": "payable",
      "type": "receive"
    }
  ],
  "bytecode": {
    "object": "0x60e06040523480156200001157600080fd5b506040516200107a3803806200107a83398101604081905262000034916200021c565b33806000816200008b5760405162461bcd60e51b815260206004820152601860248201527f43616e6e6f7420736574206f776e657220746f207a65726f000000000000000060448201526064015b60405180910390fd5b600080546001600160a01b0319166001600160a01b0384811691909117909155811615620000be57620000be8162000154565b5050506001600160a01b03828116608081905290821660a0819052600560c05260405163095ea7b360e01b8152600481019290925260001960248301529063095ea7b3906044016020604051808303816000875af115801562000125573d6000803e3d6000fd5b505050506040513d601f19601f820116820180604052508101906200014b919062000254565b5050506200027f565b336001600160a01b03821603620001ae5760405162461bcd60e51b815260206004820152601760248201527f43616e6e6f74207472616e7366657220746f2073656c66000000000000000000604482015260640162000082565b600180546001600160a01b0319166001600160a01b0383811691821790925560008054604051929316917fed8889f560326eb138920d842192f0eb3dd22b4f139c87a2c57538e05bae12789190a350565b80516001600160a01b03811681146200021757600080fd5b919050565b600080604083850312156200023057600080fd5b6200023b83620001ff565b91506200024b60208401620001ff565b90509250929050565b6000602082840312156200026757600080fd5b815180151581146200027857600080fd5b9392505050565b60805160a05160c051610db2620002c86000396000505060006105a0015260008181610438015281816105e7015281816106a80152818161074001526108330152610db26000f3fe6080604052600436106100745760003560e01c80638b5072181161004e5780638b507218146100d75780638da5cb5b146100f7578063f2fde38b14610124578063fbca3b741461014457600080fd5b80633aeac4e11461008057806351cff8d9146100a257806379ba5097146100c257600080fd5b3661007b57005b600080fd5b34801561008c57600080fd5b506100a061009b3660046109c3565b610171565b005b3480156100ae57600080fd5b506100a06100bd3660046109fc565b610261565b3480156100ce57600080fd5b506100a06102ff565b3480156100e357600080fd5b506100a06100f2366004610a3d565b6103a9565b34801561010357600080fd5b506000546040516001600160a01b0390911681526020015b60405180910390f35b34801561013057600080fd5b506100a061013f3660046109fc565b6107fd565b34801561015057600080fd5b5061016461015f366004610aa7565b610811565b60405161011b9190610ac2565b6101796108b0565b6040516370a0823160e01b81523060048201526000906001600160a01b038316906370a0823190602401602060405180830381865afa1580156101c0573d6000803e3d6000fd5b505050506040513d601f19601f820116820180604052508101906101e49190610b0f565b60405163a9059cbb60e01b81526001600160a01b038581166004830152602482018390529192509083169063a9059cbb906044016020604051808303816000875af1158015610237573d6000803e3d6000fd5b505050506040513d601f19601f8201168201806040525081019061025b9190610b28565b50505050565b6102696108b0565b60405147906000906001600160a01b0384169083908381818185875af1925050503d80600081146102b6576040519150601f19603f3d011682016040523d82523d6000602084013e6102bb565b606091505b50509050806102fa57604051639d11f56360e01b81523360048201526001600160a01b0384166024820152604481018390526064015b60405180910390fd5b505050565b6001546001600160a01b031633146103525760405162461bcd60e51b815260206004820152601660248201527526bab9ba10313290383937b837b9b2b21037bbb732b960511b60448201526064016102f1565b60008054336001600160a01b0319808316821784556001805490911690556040516001600160a01b0390921692909183917f8be0079c531659141344cd1fd0a4f28419497f9722a3daafe3b4186f6b6457e091a350565b6040516323b872dd60e01b8152336004820152306024820152604481018390526001600160a01b038416906323b872dd906064016020604051808303816000875af11580156103fc573d6000803e3d6000fd5b505050506040513d601f19601f820116820180604052508101906104209190610b28565b5060405163095ea7b360e01b81526001600160a01b037f0000000000000000000000000000000000000000000000000000000000000000811660048301526024820184905284169063095ea7b3906044016020604051808303816000875af1158015610490573d6000803e3d6000fd5b505050506040513d601f19601f820116820180604052508101906104b49190610b28565b50604080516001808252818301909252600091816020015b60408051808201909152600080825260208201528152602001906001900390816104cc5790505090506040518060400160405280856001600160a01b03168152602001848152508160008151811061052657610526610b60565b60209081029190910101526040805160a081019091526001600160a01b03861660c08201526000908060e0810160408051601f19818403018152918152908252805160208181018352600082528301528101849052606001600185600181111561059257610592610b76565b1461059e5760006105c0565b7f00000000000000000000000000000000000000000000000000000000000000005b6001600160a01b0316815260200160405180602001604052806000815250815250905060007f00000000000000000000000000000000000000000000000000000000000000006001600160a01b03166320487ded89846040518363ffffffff1660e01b8152600401610633929190610bd2565b602060405180830381865afa158015610650573d6000803e3d6000fd5b505050506040513d601f19601f820116820180604052508101906106749190610b0f565b90506000600185600181111561068c5761068c610b76565b03610729576040516396f4e9f960e01b81526001600160a01b037f000000000000000000000000000000000000000000000000000000000000000016906396f4e9f9906106df908c908790600401610bd2565b6020604051808303816000875af11580156106fe573d6000803e3d6000fd5b505050506040513d601f19601f820116820180604052508101906107229190610b0f565b90506107bf565b6040516396f4e9f960e01b81526001600160a01b037f000000000000000000000000000000000000000000000000000000000000000016906396f4e9f9908490610779908d908890600401610bd2565b60206040518083038185885af1158015610797573d6000803e3d6000fd5b50505050506040513d601f19601f820116820180604052508101906107bc9190610b0f565b90505b6040518181527f54791b38f3859327992a1ca0590ad3c0f08feba98d1a4f56ab0dca74d203392a9060200160405180910390a1505050505050505050565b6108056108b0565b61080e81610905565b50565b604051633ef28edd60e21b815267ffffffffffffffff821660048201526060907f00000000000000000000000000000000000000000000000000000000000000006001600160a01b03169063fbca3b7490602401600060405180830381865afa158015610882573d6000803e3d6000fd5b505050506040513d6000823e601f3d908101601f191682016040526108aa9190810190610cb7565b92915050565b6000546001600160a01b031633146109035760405162461bcd60e51b815260206004820152601660248201527527b7363c9031b0b63630b1363290313c9037bbb732b960511b60448201526064016102f1565b565b336001600160a01b0382160361095d5760405162461bcd60e51b815260206004820152601760248201527f43616e6e6f74207472616e7366657220746f2073656c6600000000000000000060448201526064016102f1565b600180546001600160a01b0319166001600160a01b0383811691821790925560008054604051929316917fed8889f560326eb138920d842192f0eb3dd22b4f139c87a2c57538e05bae12789190a350565b6001600160a01b038116811461080e57600080fd5b600080604083850312156109d657600080fd5b82356109e1816109ae565b915060208301356109f1816109ae565b809150509250929050565b600060208284031215610a0e57600080fd5b8135610a19816109ae565b9392505050565b803567ffffffffffffffff81168114610a3857600080fd5b919050565b600080600080600060a08688031215610a5557600080fd5b610a5e86610a20565b94506020860135610a6e816109ae565b93506040860135610a7e816109ae565b925060608601359150608086013560028110610a9957600080fd5b809150509295509295909350565b600060208284031215610ab957600080fd5b610a1982610a20565b6020808252825182820181905260009190848201906040850190845b81811015610b035783516001600160a01b031683529284019291840191600101610ade565b50909695505050505050565b600060208284031215610b2157600080fd5b5051919050565b600060208284031215610b3a57600080fd5b81518015158114610a1957600080fd5b634e487b7160e01b600052604160045260246000fd5b634e487b7160e01b600052603260045260246000fd5b634e487b7160e01b600052602160045260246000fd5b6000815180845260005b81811015610bb257602081850181015186830182015201610b96565b506000602082860101526020601f19601f83011685010191505092915050565b6000604067ffffffffffffffff8516835260208181850152845160a083860152610bff60e0860182610b8c565b905081860151603f1980878403016060880152610c1c8383610b8c565b88860151888203830160808a01528051808352908601945060009350908501905b80841015610c6f57845180516001600160a01b0316835286015186830152938501936001939093019290860190610c3d565b5060608901516001600160a01b031660a08901526080890151888203830160c08a01529550610c9e8187610b8c565b9a9950505050505050505050565b8051610a38816109ae565b60006020808385031215610cca57600080fd5b825167ffffffffffffffff80821115610ce257600080fd5b818501915085601f830112610cf657600080fd5b815181811115610d0857610d08610b4a565b8060051b604051601f19603f83011681018181108582111715610d2d57610d2d610b4a565b604052918252848201925083810185019188831115610d4b57600080fd5b938501935b82851015610d7057610d6185610cac565b84529385019392850192610d50565b9897505050505050505056fea26469706673582212205c2c536436d68be4a477b2a6fdaf8465a276772e6270f4ab2324aee55f50b13364736f6c63430008130033",
    "linkReferences": {}
  },
  "methodIdentifiers": {
    "acceptOwnership()": "79ba5097",
    "getSupportedTokens(uint64)": "fbca3b74",
    "owner()": "8da5cb5b",
    "send(uint64,address,address,uint256,uint8)": "8b507218",
    "transferOwnership(address)": "f2fde38b",
    "withdraw(address)": "51cff8d9",
    "withdrawToken(address,address)": "3aeac4e1"
  },
  "id": 8
}