{
  "abi": [
    {
      "inputs": [
        {
          "internalType": "address",
          "name": "router",
          "type": "address"
        },
        {
          "internalType": "address",
          "name": "link",
          "type": "address"
        }
      ],
      "stateMutability": "nonpayable",
      "type": "constructor"
    },
    {
      "inputs": [
        {
          "internalType": "address",
          "name": "owner",
          "type": "address"
        },
        {
          "internalType": "address",
          "name": "target",
          "type": "address"
        },
        {
          "internalType": "uint256",
          "name": "value",
          "type": "uint256"
        }
      ],
      "name": "FailedToWithdrawEth",
      "type": "error"
    },
    {
      "anonymous": false,
      "inputs": [
        {
          "indexed": false,
          "internalType": "bytes32",
          "name": "messageId",
          "type": "bytes32"
        }
      ],
      "name": "MessageSent",
      "type": "event"
    },
    {
      "anonymous": false,
      "inputs": [
        {
          "indexed": true,
          "internalType": "address",
          "name": "from",
          "type": "address"
        },
        {
          "indexed": true,
          "internalType": "address",
          "name": "to",
          "type": "address"
        }
      ],
      "name": "OwnershipTransferRequested",
      "type": "event"
    },
    {
      "anonymous": false,
      "inputs": [
        {
          "indexed": true,
          "internalType": "address",
          "name": "from",
          "type": "address"
        },
        {
          "indexed": true,
          "internalType": "address",
          "name": "to",
          "type": "address"
        }
      ],
      "name": "OwnershipTransferred",
      "type": "event"
    },
    {
      "inputs": [],
      "name": "acceptOwnership",
      "outputs": [],
      "stateMutability": "nonpayable",
      "type": "function"
    },
    {
      "inputs": [
        {
          "internalType": "uint64",
          "name": "chainSelector",
          "type": "uint64"
        }
      ],
      "name": "getSupportedTokens",
      "outputs": [
        {
          "internalType": "address[]",
          "name": "tokens",
          "type": "address[]"
        }
      ],
      "stateMutability": "view",
      "type": "function"
    },
    {
      "inputs": [],
      "name": "owner",
      "outputs": [
        {
          "internalType": "address",
          "name": "",
          "type": "address"
        }
      ],
      "stateMutability": "view",
      "type": "function"
    },
    {
      "inputs": [
        {
          "internalType": "uint64",
          "name": "destinationChainSelector",
          "type": "uint64"
        },
        {
          "internalType": "address",
          "name": "receiver",
          "type": "address"
        },
        {
          "internalType": "address",
          "name": "_token",
          "type": "address"
        },
        {
          "internalType": "uint256",
          "name": "_amount",
          "type": "uint256"
        }
      ],
      "name": "send",
      "outputs": [
        {
          "internalType": "bytes32",
          "name": "messageId",
          "type": "bytes32"
        }
      ],
      "stateMutability": "nonpayable",
      "type": "function"
    },
    {
      "inputs": [
        {
          "internalType": "address",
          "name": "to",
          "type": "address"
        }
      ],
      "name": "transferOwnership",
      "outputs": [],
      "stateMutability": "nonpayable",
      "type": "function"
    },
    {
      "inputs": [
        {
          "internalType": "address",
          "name": "beneficiary",
          "type": "address"
        }
      ],
      "name": "withdraw",
      "outputs": [],
      "stateMutability": "nonpayable",
      "type": "function"
    },
    {
      "inputs": [
        {
          "internalType": "address",
          "name": "beneficiary",
          "type": "address"
        },
        {
          "internalType": "address",
          "name": "token",
          "type": "address"
        }
      ],
      "name": "withdrawToken",
      "outputs": [],
      "stateMutability": "nonpayable",
      "type": "function"
    },
    {
      "stateMutability": "payable",
      "type": "receive"
    }
  ],
  "bytecode": {
    "object": "0x60e06040523480156200001157600080fd5b5060405162000eeb38038062000eeb83398101604081905262000034916200021c565b33806000816200008b5760405162461bcd60e51b815260206004820152601860248201527f43616e6e6f7420736574206f776e657220746f207a65726f000000000000000060448201526064015b60405180910390fd5b600080546001600160a01b0319166001600160a01b0384811691909117909155811615620000be57620000be8162000154565b5050506001600160a01b03828116608081905290821660a0819052600560c05260405163095ea7b360e01b8152600481019290925260001960248301529063095ea7b3906044016020604051808303816000875af115801562000125573d6000803e3d6000fd5b505050506040513d601f19601f820116820180604052508101906200014b919062000254565b5050506200027f565b336001600160a01b03821603620001ae5760405162461bcd60e51b815260206004820152601760248201527f43616e6e6f74207472616e7366657220746f2073656c66000000000000000000604482015260640162000082565b600180546001600160a01b0319166001600160a01b0383811691821790925560008054604051929316917fed8889f560326eb138920d842192f0eb3dd22b4f139c87a2c57538e05bae12789190a350565b80516001600160a01b03811681146200021757600080fd5b919050565b600080604083850312156200023057600080fd5b6200023b83620001ff565b91506200024b60208401620001ff565b90509250929050565b6000602082840312156200026757600080fd5b815180151581146200027857600080fd5b9392505050565b60805160a05160c051610c31620002ba60003960005050600061035d015260008181610211015281816103a101526106e30152610c316000f3fe6080604052600436106100745760003560e01c806379ba50971161004e57806379ba5097146100f55780638da5cb5b1461010a578063f2fde38b14610132578063fbca3b741461015257600080fd5b80630f32b985146100805780633aeac4e1146100b357806351cff8d9146100d557600080fd5b3661007b57005b600080fd5b34801561008c57600080fd5b506100a061009b366004610890565b61017f565b6040519081526020015b60405180910390f35b3480156100bf57600080fd5b506100d36100ce3660046108df565b610475565b005b3480156100e157600080fd5b506100d36100f0366004610918565b610565565b34801561010157600080fd5b506100d3610603565b34801561011657600080fd5b506000546040516001600160a01b0390911681526020016100aa565b34801561013e57600080fd5b506100d361014d366004610918565b6106ad565b34801561015e57600080fd5b5061017261016d36600461093c565b6106c1565b6040516100aa9190610957565b6040516323b872dd60e01b8152336004820152306024820152604481018290526000906001600160a01b038416906323b872dd906064016020604051808303816000875af11580156101d5573d6000803e3d6000fd5b505050506040513d601f19601f820116820180604052508101906101f991906109a4565b5060405163095ea7b360e01b81526001600160a01b037f0000000000000000000000000000000000000000000000000000000000000000811660048301526024820184905284169063095ea7b3906044016020604051808303816000875af1158015610269573d6000803e3d6000fd5b505050506040513d601f19601f8201168201806040525081019061028d91906109a4565b50604080516001808252818301909252600091816020015b60408051808201909152600080825260208201528152602001906001900390816102a55790505090506040518060400160405280856001600160a01b0316815260200184815250816000815181106102ff576102ff6109dc565b60209081029190910101526040805160a081019091526001600160a01b03861660c08201526000908060e0810160405160208183030381529060405281526020016040518060200160405280600081525081526020018381526020017f00000000000000000000000000000000000000000000000000000000000000006001600160a01b031681526020016040518060200160405280600081525081525090507f00000000000000000000000000000000000000000000000000000000000000006001600160a01b03166396f4e9f988836040518363ffffffff1660e01b81526004016103ed929190610a38565b6020604051808303816000875af115801561040c573d6000803e3d6000fd5b505050506040513d601f19601f820116820180604052508101906104309190610b12565b92507f54791b38f3859327992a1ca0590ad3c0f08feba98d1a4f56ab0dca74d203392a8360405161046391815260200190565b60405180910390a15050949350505050565b61047d610760565b6040516370a0823160e01b81523060048201526000906001600160a01b038316906370a0823190602401602060405180830381865afa1580156104c4573d6000803e3d6000fd5b505050506040513d601f19601f820116820180604052508101906104e89190610b12565b60405163a9059cbb60e01b81526001600160a01b038581166004830152602482018390529192509083169063a9059cbb906044016020604051808303816000875af115801561053b573d6000803e3d6000fd5b505050506040513d601f19601f8201168201806040525081019061055f91906109a4565b50505050565b61056d610760565b60405147906000906001600160a01b0384169083908381818185875af1925050503d80600081146105ba576040519150601f19603f3d011682016040523d82523d6000602084013e6105bf565b606091505b50509050806105fe57604051639d11f56360e01b81523360048201526001600160a01b0384166024820152604481018390526064015b60405180910390fd5b505050565b6001546001600160a01b031633146106565760405162461bcd60e51b815260206004820152601660248201527526bab9ba10313290383937b837b9b2b21037bbb732b960511b60448201526064016105f5565b60008054336001600160a01b0319808316821784556001805490911690556040516001600160a01b0390921692909183917f8be0079c531659141344cd1fd0a4f28419497f9722a3daafe3b4186f6b6457e091a350565b6106b5610760565b6106be816107b5565b50565b604051633ef28edd60e21b815267ffffffffffffffff821660048201526060907f00000000000000000000000000000000000000000000000000000000000000006001600160a01b03169063fbca3b7490602401600060405180830381865afa158015610732573d6000803e3d6000fd5b505050506040513d6000823e601f3d908101601f1916820160405261075a9190810190610b36565b92915050565b6000546001600160a01b031633146107b35760405162461bcd60e51b815260206004820152601660248201527527b7363c9031b0b63630b1363290313c9037bbb732b960511b60448201526064016105f5565b565b336001600160a01b0382160361080d5760405162461bcd60e51b815260206004820152601760248201527f43616e6e6f74207472616e7366657220746f2073656c6600000000000000000060448201526064016105f5565b600180546001600160a01b0319166001600160a01b0383811691821790925560008054604051929316917fed8889f560326eb138920d842192f0eb3dd22b4f139c87a2c57538e05bae12789190a350565b803567ffffffffffffffff8116811461087657600080fd5b919050565b6001600160a01b03811681146106be57600080fd5b600080600080608085870312156108a657600080fd5b6108af8561085e565b935060208501356108bf8161087b565b925060408501356108cf8161087b565b9396929550929360600135925050565b600080604083850312156108f257600080fd5b82356108fd8161087b565b9150602083013561090d8161087b565b809150509250929050565b60006020828403121561092a57600080fd5b81356109358161087b565b9392505050565b60006020828403121561094e57600080fd5b6109358261085e565b6020808252825182820181905260009190848201906040850190845b818110156109985783516001600160a01b031683529284019291840191600101610973565b50909695505050505050565b6000602082840312156109b657600080fd5b8151801515811461093557600080fd5b634e487b7160e01b600052604160045260246000fd5b634e487b7160e01b600052603260045260246000fd5b6000815180845260005b81811015610a18576020818501810151868301820152016109fc565b506000602082860101526020601f19601f83011685010191505092915050565b6000604067ffffffffffffffff8516835260208181850152845160a083860152610a6560e08601826109f2565b905081860151603f1980878403016060880152610a8283836109f2565b88860151888203830160808a01528051808352908601945060009350908501905b80841015610ad557845180516001600160a01b0316835286015186830152938501936001939093019290860190610aa3565b5060608901516001600160a01b031660a08901526080890151888203830160c08a01529550610b0481876109f2565b9a9950505050505050505050565b600060208284031215610b2457600080fd5b5051919050565b80516108768161087b565b60006020808385031215610b4957600080fd5b825167ffffffffffffffff80821115610b6157600080fd5b818501915085601f830112610b7557600080fd5b815181811115610b8757610b876109c6565b8060051b604051601f19603f83011681018181108582111715610bac57610bac6109c6565b604052918252848201925083810185019188831115610bca57600080fd5b938501935b82851015610bef57610be085610b2b565b84529385019392850192610bcf565b9897505050505050505056fea264697066735822122083edf6a5f0bb05dca86f58bb403d9b0f967ce5ce618037a17631e18e8851264d64736f6c63430008130033",
    "linkReferences": {}
  },
  "methodIdentifiers": {
    "acceptOwnership()": "79ba5097",
    "getSupportedTokens(uint64)": "fbca3b74",
    "owner()": "8da5cb5b",
    "send(uint64,address,address,uint256)": "0f32b985",
    "transferOwnership(address)": "f2fde38b",
    "withdraw(address)": "51cff8d9",
    "withdrawToken(address,address)": "3aeac4e1"
  },
  "id": 41
}