{
  "abi": [
    {
      "inputs": [
        {
          "internalType": "address",
          "name": "_router",
          "type": "address"
        },
        {
          "internalType": "address",
          "name": "_linktoken",
          "type": "address"
        }
      ],
      "stateMutability": "nonpayable",
      "type": "constructor"
    },
    {
      "inputs": [
        {
          "internalType": "address",
          "name": "_receiver",
          "type": "address"
        },
        {
          "internalType": "address",
          "name": "_token",
          "type": "address"
        },
        {
          "internalType": "uint256",
          "name": "_amount",
          "type": "uint256"
        },
        {
          "internalType": "uint64",
          "name": "destinationChainSelector",
          "type": "uint64"
        }
      ],
      "name": "send",
      "outputs": [
        {
          "internalType": "bytes32",
          "name": "messageId",
          "type": "bytes32"
        }
      ],
      "stateMutability": "nonpayable",
      "type": "function"
    }
  ],
  "bytecode": {
    "object": "0x608060405234801561001057600080fd5b506040516105e33803806105e383398101604081905261002f916100ed565b600080546001600160a01b03199081166001600160a01b038581169182179093556001805490921692841692831790915560405163095ea7b360e01b81526004810191909152600019602482015263095ea7b3906044016020604051808303816000875af11580156100a5573d6000803e3d6000fd5b505050506040513d601f19601f820116820180604052508101906100c99190610120565b505050610149565b80516001600160a01b03811681146100e857600080fd5b919050565b6000806040838503121561010057600080fd5b610109836100d1565b9150610117602084016100d1565b90509250929050565b60006020828403121561013257600080fd5b8151801515811461014257600080fd5b9392505050565b61048b806101586000396000f3fe608060405234801561001057600080fd5b506004361061002b5760003560e01c80631c01e24214610030575b600080fd5b61004361003e366004610281565b610055565b60405190815260200160405180910390f35b604080516001808252818301909252600091829190816020015b604080518082019091526000808252602082015281526020019060019003908161006f5790505090506040518060400160405280866001600160a01b0316815260200185815250816000815181106100c9576100c96102dd565b60209081029190910101526040805160a081019091526001600160a01b03871660c08201526000908060e0810160408051808303601f190181529181529082525133602482015260209091019060440160408051601f19818403018152918152602080830180516001600160e01b03166335313c2160e11b1790529183528282018690526001546001600160a01b03908116848301528151928301825260008084526060909401929092529154915163095ea7b360e01b81529181166004830152602482018890529192509087169063095ea7b3906044016020604051808303816000875af11580156101c0573d6000803e3d6000fd5b505050506040513d601f19601f820116820180604052508101906101e491906102f3565b506000546040516396f4e9f960e01b81526001600160a01b03909116906396f4e9f9906102179087908590600401610362565b6020604051808303816000875af1158015610236573d6000803e3d6000fd5b505050506040513d601f19601f8201168201806040525081019061025a919061043c565b979650505050505050565b80356001600160a01b038116811461027c57600080fd5b919050565b6000806000806080858703121561029757600080fd5b6102a085610265565b93506102ae60208601610265565b925060408501359150606085013567ffffffffffffffff811681146102d257600080fd5b939692955090935050565b634e487b7160e01b600052603260045260246000fd5b60006020828403121561030557600080fd5b8151801515811461031557600080fd5b9392505050565b6000815180845260005b8181101561034257602081850181015186830182015201610326565b506000602082860101526020601f19601f83011685010191505092915050565b6000604067ffffffffffffffff8516835260208181850152845160a08386015261038f60e086018261031c565b905081860151603f19808784030160608801526103ac838361031c565b88860151888203830160808a01528051808352908601945060009350908501905b808410156103ff57845180516001600160a01b03168352860151868301529385019360019390930192908601906103cd565b5060608901516001600160a01b031660a08901526080890151888203830160c08a0152955061042e818761031c565b9a9950505050505050505050565b60006020828403121561044e57600080fd5b505191905056fea2646970667358221220edd9485ea55433012097e6f2b46e64715cd063f593b636e54072c5a357b2144d64736f6c63430008130033",
    "linkReferences": {}
  },
  "methodIdentifiers": {
    "send(address,address,uint256,uint64)": "1c01e242"
  },
  "id": 51
}